{
  "_format": "hh-sol-artifact-1",
  "contractName": "BaseNote",
  "sourceName": "src/contracts/BaseNote.sol",
  "abi": [
    {
      "inputs": [
        {
          "internalType": "address",
          "name": "_feeRecipient",
          "type": "address"
        },
        {
          "internalType": "uint256",
          "name": "_initialFee",
          "type": "uint256"
        }
      ],
      "stateMutability": "nonpayable",
      "type": "constructor"
    },
    {
      "inputs": [
        {
          "internalType": "address",
          "name": "owner",
          "type": "address"
        }
      ],
      "name": "OwnableInvalidOwner",
      "type": "error"
    },
    {
      "inputs": [
        {
          "internalType": "address",
          "name": "account",
          "type": "address"
        }
      ],
      "name": "OwnableUnauthorizedAccount",
      "type": "error"
    },
    {
      "anonymous": false,
      "inputs": [
        {
          "indexed": true,
          "internalType": "address",
          "name": "owner",
          "type": "address"
        },
        {
          "indexed": true,
          "internalType": "enum BaseNote.DataType",
          "name": "dataType",
          "type": "uint8"
        },
        {
          "indexed": false,
          "internalType": "uint256",
          "name": "id",
          "type": "uint256"
        },
        {
          "indexed": false,
          "internalType": "string",
          "name": "data",
          "type": "string"
        }
      ],
      "name": "DataCreated",
      "type": "event"
    },
    {
      "anonymous": false,
      "inputs": [
        {
          "indexed": true,
          "internalType": "address",
          "name": "owner",
          "type": "address"
        },
        {
          "indexed": true,
          "internalType": "enum BaseNote.DataType",
          "name": "dataType",
          "type": "uint8"
        },
        {
          "indexed": false,
          "internalType": "uint256",
          "name": "id",
          "type": "uint256"
        }
      ],
      "name": "DataDeleted",
      "type": "event"
    },
    {
      "anonymous": false,
      "inputs": [
        {
          "indexed": true,
          "internalType": "address",
          "name": "owner",
          "type": "address"
        },
        {
          "indexed": true,
          "internalType": "enum BaseNote.DataType",
          "name": "dataType",
          "type": "uint8"
        },
        {
          "indexed": false,
          "internalType": "uint256",
          "name": "id",
          "type": "uint256"
        },
        {
          "indexed": false,
          "internalType": "string",
          "name": "data",
          "type": "string"
        }
      ],
      "name": "DataUpdated",
      "type": "event"
    },
    {
      "anonymous": false,
      "inputs": [
        {
          "indexed": false,
          "internalType": "address",
          "name": "newFeeRecipient",
          "type": "address"
        }
      ],
      "name": "FeeRecipientUpdated",
      "type": "event"
    },
    {
      "anonymous": false,
      "inputs": [
        {
          "indexed": false,
          "internalType": "uint256",
          "name": "newFee",
          "type": "uint256"
        }
      ],
      "name": "FeeUpdated",
      "type": "event"
    },
    {
      "anonymous": false,
      "inputs": [
        {
          "indexed": true,
          "internalType": "address",
          "name": "previousOwner",
          "type": "address"
        },
        {
          "indexed": true,
          "internalType": "address",
          "name": "newOwner",
          "type": "address"
        }
      ],
      "name": "OwnershipTransferred",
      "type": "event"
    },
    {
      "inputs": [
        {
          "internalType": "enum BaseNote.DataType",
          "name": "dataType",
          "type": "uint8"
        },
        {
          "internalType": "string",
          "name": "data",
          "type": "string"
        }
      ],
      "name": "createData",
      "outputs": [
        {
          "internalType": "uint256",
          "name": "",
          "type": "uint256"
        }
      ],
      "stateMutability": "payable",
      "type": "function"
    },
    {
      "inputs": [
        {
          "internalType": "enum BaseNote.DataType",
          "name": "dataType",
          "type": "uint8"
        },
        {
          "internalType": "uint256",
          "name": "id",
          "type": "uint256"
        }
      ],
      "name": "deleteData",
      "outputs": [],
      "stateMutability": "payable",
      "type": "function"
    },
    {
      "inputs": [],
      "name": "fee",
      "outputs": [
        {
          "internalType": "uint256",
          "name": "",
          "type": "uint256"
        }
      ],
      "stateMutability": "view",
      "type": "function"
    },
    {
      "inputs": [],
      "name": "feeRecipient",
      "outputs": [
        {
          "internalType": "address",
          "name": "",
          "type": "address"
        }
      ],
      "stateMutability": "view",
      "type": "function"
    },
    {
      "inputs": [
        {
          "internalType": "address",
          "name": "owner",
          "type": "address"
        },
        {
          "internalType": "enum BaseNote.DataType",
          "name": "dataType",
          "type": "uint8"
        }
      ],
      "name": "getAllData",
      "outputs": [
        {
          "components": [
            {
              "internalType": "uint256",
              "name": "id",
              "type": "uint256"
            },
            {
              "internalType": "address",
              "name": "owner",
              "type": "address"
            },
            {
              "internalType": "string",
              "name": "data",
              "type": "string"
            },
            {
              "internalType": "uint256",
              "name": "timestamp",
              "type": "uint256"
            },
            {
              "internalType": "uint256",
              "name": "nftTokenId",
              "type": "uint256"
            },
            {
              "internalType": "enum BaseNote.DataType",
              "name": "dataType",
              "type": "uint8"
            }
          ],
          "internalType": "struct BaseNote.Data[]",
          "name": "",
          "type": "tuple[]"
        }
      ],
      "stateMutability": "view",
      "type": "function"
    },
    {
      "inputs": [
        {
          "internalType": "address",
          "name": "owner",
          "type": "address"
        },
        {
          "internalType": "enum BaseNote.DataType",
          "name": "dataType",
          "type": "uint8"
        },
        {
          "internalType": "uint256",
          "name": "id",
          "type": "uint256"
        }
      ],
      "name": "getData",
      "outputs": [
        {
          "components": [
            {
              "internalType": "uint256",
              "name": "id",
              "type": "uint256"
            },
            {
              "internalType": "address",
              "name": "owner",
              "type": "address"
            },
            {
              "internalType": "string",
              "name": "data",
              "type": "string"
            },
            {
              "internalType": "uint256",
              "name": "timestamp",
              "type": "uint256"
            },
            {
              "internalType": "uint256",
              "name": "nftTokenId",
              "type": "uint256"
            },
            {
              "internalType": "enum BaseNote.DataType",
              "name": "dataType",
              "type": "uint8"
            }
          ],
          "internalType": "struct BaseNote.Data",
          "name": "",
          "type": "tuple"
        }
      ],
      "stateMutability": "view",
      "type": "function"
    },
    {
      "inputs": [],
      "name": "owner",
      "outputs": [
        {
          "internalType": "address",
          "name": "",
          "type": "address"
        }
      ],
      "stateMutability": "view",
      "type": "function"
    },
    {
      "inputs": [],
      "name": "renounceOwnership",
      "outputs": [],
      "stateMutability": "nonpayable",
      "type": "function"
    },
    {
      "inputs": [
        {
          "internalType": "address",
          "name": "owner",
          "type": "address"
        },
        {
          "internalType": "uint256",
          "name": "noteId",
          "type": "uint256"
        },
        {
          "internalType": "uint256",
          "name": "tokenId",
          "type": "uint256"
        }
      ],
      "name": "setNoteNFTTokenId",
      "outputs": [],
      "stateMutability": "nonpayable",
      "type": "function"
    },
    {
      "inputs": [
        {
          "internalType": "address",
          "name": "newOwner",
          "type": "address"
        }
      ],
      "name": "transferOwnership",
      "outputs": [],
      "stateMutability": "nonpayable",
      "type": "function"
    },
    {
      "inputs": [
        {
          "internalType": "enum BaseNote.DataType",
          "name": "dataType",
          "type": "uint8"
        },
        {
          "internalType": "uint256",
          "name": "id",
          "type": "uint256"
        },
        {
          "internalType": "string",
          "name": "data",
          "type": "string"
        }
      ],
      "name": "updateData",
      "outputs": [],
      "stateMutability": "payable",
      "type": "function"
    },
    {
      "inputs": [
        {
          "internalType": "uint256",
          "name": "newFee",
          "type": "uint256"
        }
      ],
      "name": "updateFee",
      "outputs": [],
      "stateMutability": "nonpayable",
      "type": "function"
    },
    {
      "inputs": [
        {
          "internalType": "address",
          "name": "newFeeRecipient",
          "type": "address"
        }
      ],
      "name": "updateFeeRecipient",
      "outputs": [],
      "stateMutability": "nonpayable",
      "type": "function"
    }
  ],
  "bytecode": "0x60806040523480156200001157600080fd5b5060405162002b9c38038062002b9c833981810160405281019062000037919062000278565b33600073ffffffffffffffffffffffffffffffffffffffff168173ffffffffffffffffffffffffffffffffffffffff1603620000ad5760006040517f1e4fbdf7000000000000000000000000000000000000000000000000000000008152600401620000a49190620002d0565b60405180910390fd5b620000be816200010f60201b60201c565b5081600160006101000a81548173ffffffffffffffffffffffffffffffffffffffff021916908373ffffffffffffffffffffffffffffffffffffffff160217905550806002819055505050620002ed565b60008060009054906101000a900473ffffffffffffffffffffffffffffffffffffffff169050816000806101000a81548173ffffffffffffffffffffffffffffffffffffffff021916908373ffffffffffffffffffffffffffffffffffffffff1602179055508173ffffffffffffffffffffffffffffffffffffffff168173ffffffffffffffffffffffffffffffffffffffff167f8be0079c531659141344cd1fd0a4f28419497f9722a3daafe3b4186f6b6457e060405160405180910390a35050565b600080fd5b600073ffffffffffffffffffffffffffffffffffffffff82169050919050565b60006200020582620001d8565b9050919050565b6200021781620001f8565b81146200022357600080fd5b50565b60008151905062000237816200020c565b92915050565b6000819050919050565b62000252816200023d565b81146200025e57600080fd5b50565b600081519050620002728162000247565b92915050565b60008060408385031215620002925762000291620001d3565b5b6000620002a28582860162000226565b9250506020620002b58582860162000261565b9150509250929050565b620002ca81620001f8565b82525050565b6000602082019050620002e76000830184620002bf565b92915050565b61289f80620002fd6000396000f3fe6080604052600436106100c25760003560e01c806359ee724a1161007f5780639012c4a8116100595780639012c4a81461023f578063ddca3f4314610268578063f160d36914610293578063f2fde38b146102bc576100c2565b806359ee724a146101e1578063715018a6146101fd5780638da5cb5b14610214576100c2565b80630a8281e6146100c757806314e3a6da146100f75780631a6e1e8a14610134578063469048401461015057806351b707721461017b578063590505e9146101b8575b600080fd5b6100e160048036038101906100dc9190611a19565b6102e5565b6040516100ee9190611a92565b60405180910390f35b34801561010357600080fd5b5061011e60048036038101906101199190611b37565b610736565b60405161012b9190611d38565b60405180910390f35b61014e60048036038101906101499190611d5a565b610918565b005b34801561015c57600080fd5b50610165610cd2565b6040516101729190611ddd565b60405180910390f35b34801561018757600080fd5b506101a2600480360381019061019d9190611df8565b610cf8565b6040516101af9190611f83565b60405180910390f35b3480156101c457600080fd5b506101df60048036038101906101da9190611fa5565b611052565b005b6101fb60048036038101906101f69190611ff8565b611268565b005b34801561020957600080fd5b506102126115e2565b005b34801561022057600080fd5b506102296115f6565b6040516102369190611ddd565b60405180910390f35b34801561024b57600080fd5b5061026660048036038101906102619190612038565b61161f565b005b34801561027457600080fd5b5061027d611668565b60405161028a9190611a92565b60405180910390f35b34801561029f57600080fd5b506102ba60048036038101906102b59190612065565b61166e565b005b3480156102c857600080fd5b506102e360048036038101906102de9190612065565b6116f1565b005b600060025434101561032c576040517f08c379a0000000000000000000000000000000000000000000000000000000008152600401610323906120ef565b60405180910390fd5b6000600160009054906101000a900473ffffffffffffffffffffffffffffffffffffffff1673ffffffffffffffffffffffffffffffffffffffff163460405161037490612140565b60006040518083038185875af1925050503d80600081146103b1576040519150601f19603f3d011682016040523d82523d6000602084013e6103b6565b606091505b50509050806103fa576040517f08c379a00000000000000000000000000000000000000000000000000000000081526004016103f1906121a1565b60405180910390fd5b60006001600460003373ffffffffffffffffffffffffffffffffffffffff1673ffffffffffffffffffffffffffffffffffffffff168152602001908152602001600020600088600281111561045257610451611c38565b5b600281111561046457610463611c38565b5b81526020019081526020016000205461047d91906121f0565b90506040518060c001604052808281526020013373ffffffffffffffffffffffffffffffffffffffff16815260200186868080601f016020809104026020016040519081016040528093929190818152602001838380828437600081840152601f19601f8201169050808301925050505050505081526020014281526020016000815260200187600281111561051657610515611c38565b5b815250600360003373ffffffffffffffffffffffffffffffffffffffff1673ffffffffffffffffffffffffffffffffffffffff168152602001908152602001600020600088600281111561056d5761056c611c38565b5b600281111561057f5761057e611c38565b5b815260200190815260200160002060008381526020019081526020016000206000820151816000015560208201518160010160006101000a81548173ffffffffffffffffffffffffffffffffffffffff021916908373ffffffffffffffffffffffffffffffffffffffff1602179055506040820151816002019081610604919061245f565b50606082015181600301556080820151816004015560a08201518160050160006101000a81548160ff0219169083600281111561064457610643611c38565b5b021790555090505080600460003373ffffffffffffffffffffffffffffffffffffffff1673ffffffffffffffffffffffffffffffffffffffff16815260200190815260200160002060008860028111156106a1576106a0611c38565b5b60028111156106b3576106b2611c38565b5b8152602001908152602001600020819055508560028111156106d8576106d7611c38565b5b3373ffffffffffffffffffffffffffffffffffffffff167f6c51fd5c650bfc77106a59c043acb3e639cc41703023ebb155b5f06da246504f8388886040516107229392919061256d565b60405180910390a380925050509392505050565b61073e6118ca565b600360008573ffffffffffffffffffffffffffffffffffffffff1673ffffffffffffffffffffffffffffffffffffffff168152602001908152602001600020600084600281111561079257610791611c38565b5b60028111156107a4576107a3611c38565b5b815260200190815260200160002060008381526020019081526020016000206040518060c0016040529081600082015481526020016001820160009054906101000a900473ffffffffffffffffffffffffffffffffffffffff1673ffffffffffffffffffffffffffffffffffffffff1673ffffffffffffffffffffffffffffffffffffffff16815260200160028201805461083e90612282565b80601f016020809104026020016040519081016040528092919081815260200182805461086a90612282565b80156108b75780601f1061088c576101008083540402835291602001916108b7565b820191906000526020600020905b81548152906001019060200180831161089a57829003601f168201915b5050505050815260200160038201548152602001600482015481526020016005820160009054906101000a900460ff1660028111156108f9576108f8611c38565b5b600281111561090b5761090a611c38565b5b8152505090509392505050565b60025434101561095d576040517f08c379a0000000000000000000000000000000000000000000000000000000008152600401610954906120ef565b60405180910390fd5b3373ffffffffffffffffffffffffffffffffffffffff16600360003373ffffffffffffffffffffffffffffffffffffffff1673ffffffffffffffffffffffffffffffffffffffff16815260200190815260200160002060008660028111156109c8576109c7611c38565b5b60028111156109da576109d9611c38565b5b8152602001908152602001600020600085815260200190815260200160002060010160009054906101000a900473ffffffffffffffffffffffffffffffffffffffff1673ffffffffffffffffffffffffffffffffffffffff1614610a73576040517f08c379a0000000000000000000000000000000000000000000000000000000008152600401610a6a906125eb565b60405180910390fd5b6000600160009054906101000a900473ffffffffffffffffffffffffffffffffffffffff1673ffffffffffffffffffffffffffffffffffffffff1634604051610abb90612140565b60006040518083038185875af1925050503d8060008114610af8576040519150601f19603f3d011682016040523d82523d6000602084013e610afd565b606091505b5050905080610b41576040517f08c379a0000000000000000000000000000000000000000000000000000000008152600401610b38906121a1565b60405180910390fd5b8282600360003373ffffffffffffffffffffffffffffffffffffffff1673ffffffffffffffffffffffffffffffffffffffff1681526020019081526020016000206000886002811115610b9757610b96611c38565b5b6002811115610ba957610ba8611c38565b5b815260200190815260200160002060008781526020019081526020016000206002019182610bd8929190612616565b5042600360003373ffffffffffffffffffffffffffffffffffffffff1673ffffffffffffffffffffffffffffffffffffffff1681526020019081526020016000206000876002811115610c2e57610c2d611c38565b5b6002811115610c4057610c3f611c38565b5b8152602001908152602001600020600086815260200190815260200160002060030181905550846002811115610c7957610c78611c38565b5b3373ffffffffffffffffffffffffffffffffffffffff167fe4fa37303c4a941842f2dde2fb788d8c28af52bef1512e3a44d573cfcb36fa6e868686604051610cc39392919061256d565b60405180910390a35050505050565b600160009054906101000a900473ffffffffffffffffffffffffffffffffffffffff1681565b60606000600460008573ffffffffffffffffffffffffffffffffffffffff1673ffffffffffffffffffffffffffffffffffffffff1681526020019081526020016000206000846002811115610d5057610d4f611c38565b5b6002811115610d6257610d61611c38565b5b815260200190815260200160002054905060008167ffffffffffffffff811115610d8f57610d8e612224565b5b604051908082528060200260200182016040528015610dc857816020015b610db56118ca565b815260200190600190039081610dad5790505b5090506000600190505b828111611046576000600360008873ffffffffffffffffffffffffffffffffffffffff1673ffffffffffffffffffffffffffffffffffffffff1681526020019081526020016000206000876002811115610e2f57610e2e611c38565b5b6002811115610e4157610e40611c38565b5b815260200190815260200160002060008381526020019081526020016000209050600073ffffffffffffffffffffffffffffffffffffffff168160010160009054906101000a900473ffffffffffffffffffffffffffffffffffffffff1673ffffffffffffffffffffffffffffffffffffffff161461103257806040518060c0016040529081600082015481526020016001820160009054906101000a900473ffffffffffffffffffffffffffffffffffffffff1673ffffffffffffffffffffffffffffffffffffffff1673ffffffffffffffffffffffffffffffffffffffff168152602001600282018054610f3690612282565b80601f0160208091040260200160405190810160405280929190818152602001828054610f6290612282565b8015610faf5780601f10610f8457610100808354040283529160200191610faf565b820191906000526020600020905b815481529060010190602001808311610f9257829003601f168201915b5050505050815260200160038201548152602001600482015481526020016005820160009054906101000a900460ff166002811115610ff157610ff0611c38565b5b600281111561100357611002611c38565b5b815250508360018461101591906126e6565b815181106110265761102561271a565b5b60200260200101819052505b50808061103e90612749565b915050610dd2565b50809250505092915050565b3373ffffffffffffffffffffffffffffffffffffffff168373ffffffffffffffffffffffffffffffffffffffff16146110c0576040517f08c379a00000000000000000000000000000000000000000000000000000000081526004016110b7906127dd565b60405180910390fd5b8273ffffffffffffffffffffffffffffffffffffffff16600360008573ffffffffffffffffffffffffffffffffffffffff1673ffffffffffffffffffffffffffffffffffffffff168152602001908152602001600020600060028081111561112b5761112a611c38565b5b600281111561113d5761113c611c38565b5b8152602001908152602001600020600084815260200190815260200160002060010160009054906101000a900473ffffffffffffffffffffffffffffffffffffffff1673ffffffffffffffffffffffffffffffffffffffff16146111d6576040517f08c379a00000000000000000000000000000000000000000000000000000000081526004016111cd90612849565b60405180910390fd5b80600360008573ffffffffffffffffffffffffffffffffffffffff1673ffffffffffffffffffffffffffffffffffffffff168152602001908152602001600020600060028081111561122b5761122a611c38565b5b600281111561123d5761123c611c38565b5b8152602001908152602001600020600084815260200190815260200160002060040181905550505050565b6002543410156112ad576040517f08c379a00000000000000000000000000000000000000000000000000000000081526004016112a4906120ef565b60405180910390fd5b3373ffffffffffffffffffffffffffffffffffffffff16600360003373ffffffffffffffffffffffffffffffffffffffff1673ffffffffffffffffffffffffffffffffffffffff168152602001908152602001600020600084600281111561131857611317611c38565b5b600281111561132a57611329611c38565b5b8152602001908152602001600020600083815260200190815260200160002060010160009054906101000a900473ffffffffffffffffffffffffffffffffffffffff1673ffffffffffffffffffffffffffffffffffffffff16146113c3576040517f08c379a00000000000000000000000000000000000000000000000000000000081526004016113ba906125eb565b60405180910390fd5b6000600160009054906101000a900473ffffffffffffffffffffffffffffffffffffffff1673ffffffffffffffffffffffffffffffffffffffff163460405161140b90612140565b60006040518083038185875af1925050503d8060008114611448576040519150601f19603f3d011682016040523d82523d6000602084013e61144d565b606091505b5050905080611491576040517f08c379a0000000000000000000000000000000000000000000000000000000008152600401611488906121a1565b60405180910390fd5b600360003373ffffffffffffffffffffffffffffffffffffffff1673ffffffffffffffffffffffffffffffffffffffff16815260200190815260200160002060008460028111156114e5576114e4611c38565b5b60028111156114f7576114f6611c38565b5b815260200190815260200160002060008381526020019081526020016000206000808201600090556001820160006101000a81549073ffffffffffffffffffffffffffffffffffffffff02191690556002820160006115569190611928565b600382016000905560048201600090556005820160006101000a81549060ff0219169055505082600281111561158f5761158e611c38565b5b3373ffffffffffffffffffffffffffffffffffffffff167f5d6bf8a691be7bf3cf6faa368b0053c226febbdf930128d5dbbcc5a60bd21f58846040516115d59190611a92565b60405180910390a3505050565b6115ea611777565b6115f460006117fe565b565b60008060009054906101000a900473ffffffffffffffffffffffffffffffffffffffff16905090565b611627611777565b806002819055507f8c4d35e54a3f2ef1134138fd8ea3daee6a3c89e10d2665996babdf70261e2c768160405161165d9190611a92565b60405180910390a150565b60025481565b611676611777565b80600160006101000a81548173ffffffffffffffffffffffffffffffffffffffff021916908373ffffffffffffffffffffffffffffffffffffffff1602179055507f7a7b5a0a132f9e0581eb8527f66eae9ee89c2a3e79d4ac7e41a1f1f4d48a7fc2816040516116e69190611ddd565b60405180910390a150565b6116f9611777565b600073ffffffffffffffffffffffffffffffffffffffff168173ffffffffffffffffffffffffffffffffffffffff160361176b5760006040517f1e4fbdf70000000000000000000000000000000000000000000000000000000081526004016117629190611ddd565b60405180910390fd5b611774816117fe565b50565b61177f6118c2565b73ffffffffffffffffffffffffffffffffffffffff1661179d6115f6565b73ffffffffffffffffffffffffffffffffffffffff16146117fc576117c06118c2565b6040517f118cdaa70000000000000000000000000000000000000000000000000000000081526004016117f39190611ddd565b60405180910390fd5b565b60008060009054906101000a900473ffffffffffffffffffffffffffffffffffffffff169050816000806101000a81548173ffffffffffffffffffffffffffffffffffffffff021916908373ffffffffffffffffffffffffffffffffffffffff1602179055508173ffffffffffffffffffffffffffffffffffffffff168173ffffffffffffffffffffffffffffffffffffffff167f8be0079c531659141344cd1fd0a4f28419497f9722a3daafe3b4186f6b6457e060405160405180910390a35050565b600033905090565b6040518060c0016040528060008152602001600073ffffffffffffffffffffffffffffffffffffffff1681526020016060815260200160008152602001600081526020016000600281111561192257611921611c38565b5b81525090565b50805461193490612282565b6000825580601f106119465750611965565b601f0160209004906000526020600020908101906119649190611968565b5b50565b5b80821115611981576000816000905550600101611969565b5090565b600080fd5b600080fd5b6003811061199c57600080fd5b50565b6000813590506119ae8161198f565b92915050565b600080fd5b600080fd5b600080fd5b60008083601f8401126119d9576119d86119b4565b5b8235905067ffffffffffffffff8111156119f6576119f56119b9565b5b602083019150836001820283011115611a1257611a116119be565b5b9250929050565b600080600060408486031215611a3257611a31611985565b5b6000611a408682870161199f565b935050602084013567ffffffffffffffff811115611a6157611a6061198a565b5b611a6d868287016119c3565b92509250509250925092565b6000819050919050565b611a8c81611a79565b82525050565b6000602082019050611aa76000830184611a83565b92915050565b600073ffffffffffffffffffffffffffffffffffffffff82169050919050565b6000611ad882611aad565b9050919050565b611ae881611acd565b8114611af357600080fd5b50565b600081359050611b0581611adf565b92915050565b611b1481611a79565b8114611b1f57600080fd5b50565b600081359050611b3181611b0b565b92915050565b600080600060608486031215611b5057611b4f611985565b5b6000611b5e86828701611af6565b9350506020611b6f8682870161199f565b9250506040611b8086828701611b22565b9150509250925092565b611b9381611a79565b82525050565b611ba281611acd565b82525050565b600081519050919050565b600082825260208201905092915050565b60005b83811015611be2578082015181840152602081019050611bc7565b60008484015250505050565b6000601f19601f8301169050919050565b6000611c0a82611ba8565b611c148185611bb3565b9350611c24818560208601611bc4565b611c2d81611bee565b840191505092915050565b7f4e487b7100000000000000000000000000000000000000000000000000000000600052602160045260246000fd5b60038110611c7857611c77611c38565b5b50565b6000819050611c8982611c67565b919050565b6000611c9982611c7b565b9050919050565b611ca981611c8e565b82525050565b600060c083016000830151611cc76000860182611b8a565b506020830151611cda6020860182611b99565b5060408301518482036040860152611cf28282611bff565b9150506060830151611d076060860182611b8a565b506080830151611d1a6080860182611b8a565b5060a0830151611d2d60a0860182611ca0565b508091505092915050565b60006020820190508181036000830152611d528184611caf565b905092915050565b60008060008060608587031215611d7457611d73611985565b5b6000611d828782880161199f565b9450506020611d9387828801611b22565b935050604085013567ffffffffffffffff811115611db457611db361198a565b5b611dc0878288016119c3565b925092505092959194509250565b611dd781611acd565b82525050565b6000602082019050611df26000830184611dce565b92915050565b60008060408385031215611e0f57611e0e611985565b5b6000611e1d85828601611af6565b9250506020611e2e8582860161199f565b9150509250929050565b600081519050919050565b600082825260208201905092915050565b6000819050602082019050919050565b600060c083016000830151611e7c6000860182611b8a565b506020830151611e8f6020860182611b99565b5060408301518482036040860152611ea78282611bff565b9150506060830151611ebc6060860182611b8a565b506080830151611ecf6080860182611b8a565b5060a0830151611ee260a0860182611ca0565b508091505092915050565b6000611ef98383611e64565b905092915050565b6000602082019050919050565b6000611f1982611e38565b611f238185611e43565b935083602082028501611f3585611e54565b8060005b85811015611f715784840389528151611f528582611eed565b9450611f5d83611f01565b925060208a01995050600181019050611f39565b50829750879550505050505092915050565b60006020820190508181036000830152611f9d8184611f0e565b905092915050565b600080600060608486031215611fbe57611fbd611985565b5b6000611fcc86828701611af6565b9350506020611fdd86828701611b22565b9250506040611fee86828701611b22565b9150509250925092565b6000806040838503121561200f5761200e611985565b5b600061201d8582860161199f565b925050602061202e85828601611b22565b9150509250929050565b60006020828403121561204e5761204d611985565b5b600061205c84828501611b22565b91505092915050565b60006020828403121561207b5761207a611985565b5b600061208984828501611af6565b91505092915050565b600082825260208201905092915050565b7f496e73756666696369656e742066656500000000000000000000000000000000600082015250565b60006120d9601083612092565b91506120e4826120a3565b602082019050919050565b60006020820190508181036000830152612108816120cc565b9050919050565b600081905092915050565b50565b600061212a60008361210f565b91506121358261211a565b600082019050919050565b600061214b8261211d565b9150819050919050565b7f4661696c656420746f2073656e64206665650000000000000000000000000000600082015250565b600061218b601283612092565b915061219682612155565b602082019050919050565b600060208201905081810360008301526121ba8161217e565b9050919050565b7f4e487b7100000000000000000000000000000000000000000000000000000000600052601160045260246000fd5b60006121fb82611a79565b915061220683611a79565b925082820190508082111561221e5761221d6121c1565b5b92915050565b7f4e487b7100000000000000000000000000000000000000000000000000000000600052604160045260246000fd5b7f4e487b7100000000000000000000000000000000000000000000000000000000600052602260045260246000fd5b6000600282049050600182168061229a57607f821691505b6020821081036122ad576122ac612253565b5b50919050565b60008190508160005260206000209050919050565b60006020601f8301049050919050565b600082821b905092915050565b6000600883026123157fffffffffffffffffffffffffffffffffffffffffffffffffffffffffffffffff826122d8565b61231f86836122d8565b95508019841693508086168417925050509392505050565b6000819050919050565b600061235c61235761235284611a79565b612337565b611a79565b9050919050565b6000819050919050565b61237683612341565b61238a61238282612363565b8484546122e5565b825550505050565b600090565b61239f612392565b6123aa81848461236d565b505050565b5b818110156123ce576123c3600082612397565b6001810190506123b0565b5050565b601f821115612413576123e4816122b3565b6123ed846122c8565b810160208510156123fc578190505b612410612408856122c8565b8301826123af565b50505b505050565b600082821c905092915050565b600061243660001984600802612418565b1980831691505092915050565b600061244f8383612425565b9150826002028217905092915050565b61246882611ba8565b67ffffffffffffffff81111561248157612480612224565b5b61248b8254612282565b6124968282856123d2565b600060209050601f8311600181146124c957600084156124b7578287015190505b6124c18582612443565b865550612529565b601f1984166124d7866122b3565b60005b828110156124ff578489015182556001820191506020850194506020810190506124da565b8683101561251c5784890151612518601f891682612425565b8355505b6001600288020188555050505b505050505050565b82818337600083830152505050565b600061254c8385612092565b9350612559838584612531565b61256283611bee565b840190509392505050565b60006040820190506125826000830186611a83565b8181036020830152612595818486612540565b9050949350505050565b7f4e6f74206f776e65720000000000000000000000000000000000000000000000600082015250565b60006125d5600983612092565b91506125e08261259f565b602082019050919050565b60006020820190508181036000830152612604816125c8565b9050919050565b600082905092915050565b612620838361260b565b67ffffffffffffffff81111561263957612638612224565b5b6126438254612282565b61264e8282856123d2565b6000601f83116001811461267d576000841561266b578287013590505b6126758582612443565b8655506126dd565b601f19841661268b866122b3565b60005b828110156126b35784890135825560018201915060208501945060208101905061268e565b868310156126d057848901356126cc601f891682612425565b8355505b6001600288020188555050505b50505050505050565b60006126f182611a79565b91506126fc83611a79565b9250828203905081811115612714576127136121c1565b5b92915050565b7f4e487b7100000000000000000000000000000000000000000000000000000000600052603260045260246000fd5b600061275482611a79565b91507fffffffffffffffffffffffffffffffffffffffffffffffffffffffffffffffff8203612786576127856121c1565b5b600182019050919050565b7f4e6f7420617574686f72697a6564000000000000000000000000000000000000600082015250565b60006127c7600e83612092565b91506127d282612791565b602082019050919050565b600060208201905081810360008301526127f6816127ba565b9050919050565b7f4e6f7465206e6f7420666f756e64000000000000000000000000000000000000600082015250565b6000612833600e83612092565b915061283e826127fd565b602082019050919050565b6000602082019050818103600083015261286281612826565b905091905056fea26469706673582212202d21fd95bd08f5f14258438491f2e557d34ee46bf1f90170a4e2e71f7dd6cf7264736f6c63430008140033",
  "linkReferences": {},
  "deployedLinkReferences": {}
}